:100000000C94EA000C9465190C943E190C9412019E
:100010000C9412010C9412010C9412010C94120114
:100020000C9412010C9412010C9412010C948C1972
:100030000C9412010C9412010C9412010C941201F4
:100040000C94F4180C9412010C94C2180C949C1883
:100050000C9412010C9412010C9412010C941201D4
:100060000C94481A0C941201084AD73B3BCE016EFF
:1000700084BCBFFDC12F3D6C74319ABD56833DDAFF
:100080003D00C77F11BED9E4BB4C3E916BAAAABE0E
:10009000000000803F07634236B79BD8A71A396833
:1000A0005618AEBAAB558C1D3CB7CC5763BD6DED41
:1000B000FD753EF6177231BF000000803F0800005A
:1000C00000BE922449123EABAAAA2ABECDCCCC4C8B
:1000D0003E00000080BEABAAAAAA3E00000000BFFE
:1000E000000000803F0000000000084178D3BB43BF
:1000F00087D1133D190E3CC3BD4282AD2B3E68EC47
:100100008276BED98FE1A93E4C80EFFFBE01C4FFCD
:100110007F3F0000000000007C3C3E5E2B3D3F2FF7
:100120005B5D3B2C2A225C000000000024002700BD
:100130002A0000000000250028002B00000000001D
:100140002300260029000404040404040404020219
:100150000202020203030303030301020408102046
:100160004080010204081020010204081020000051
:100170000008000201000003040700000000000066
:10018000000054696D6520286D73292C20416C7422
:10019000697475646520286D292C20506974636822
:1001A0002028646567292C20526F6C6C20286465B8
:1001B00067292C205961772028646567292C204104
:1001C000636379202867292C2054656D70202843AB
:1001D00029008A1C11241FBECFEFD8E0DEBFCDBF9F
:1001E00012E0A0E0B1E0E4EAFEE502C005900D9265
:1001F000A430B107D9F727E0A4E0B2E001C01D9216
:10020000A030B207E1F710E0CAEED0E004C02197B9
:10021000FE010E94FE2DC93ED107C9F70E94581D5C
:100220000C94502F0C94000090918A059111FCCFF2
:1002300091E090938A05909389052FEF209388058C
:1002400010928705260F209386059093850590913F
:100250008505880F892B80938505809184058130E1
:10026000F9F410928405809185058093BB008091FC
:10027000BC0083FDF8CF85EC8093BC0080918A059B
:100280008130E1F380918705861710F4609187052E
:10029000A4E6B5E0E4E4F5E080E0861303C0089549
:1002A00085EEEACF9D9191938F5FF7CF2091410525
:1002B00081E0213208F044C080918A058111FCCF91
:1002C0008091400592E090938A0591E09093890592
:1002D0009FEF909388051092870520938605A0E2F2
:1002E000B5E0E4E6F5E090E0291331C01092850511
:1002F00090918505880F892B8093850580918405D1
:10030000813049F510928405809185058093BB006A
:100310008091BC0083FDF8CF85EC8093BC00809178
:100320008A058230E1F3809188058F3FB1F080919A
:1003300088058032A1F080918805803391F084E0B7
:1003400010921F051092410510921E0508953D91CF
:1003500031939F5FC9CF85EEE0CF80E0F1CF82E09F
:10036000EFCF83E0EDCFCF92DF92EF92FF92DC01EF
:10037000A03282E0B807D4F5A53BB10514F0A4EB98
:10038000B0E04091CC0628E830E0241B310947FD5D
:100390003395220F331F220F331F6901330FEE08ED
:1003A000FF084091CD0628E532E0241B310947FDC6
:1003B0003395220F331F220F331F032E000C440BE3
:1003C000550B2C193D094E095F09B7FF02C0B0E07B
:1003D000A0E00E94732724EB30E040E050E00E9450
:1003E0004927C20ED31EE41EF51ED601E091CB06AE
:1003F000EC3080F52091CC0688E890E0821B9109D2
:1004000027FD9395880F991F880F991FA817B90783
:1004100084F02091CD0688E592E0821B910927FDAA
:100420009395880F991F880F991FA817B9070CF487
:10043000CD010297880F991F4FB7F8942E2F30E007
:10044000F901EE0FFF1FE20FF31FE557F94F9283FB
:1004500081834FBFFF90EF90DF90CF900895089574
:100460000895AF92BF92CF92DF92EF92FF920F93D7
:100470001F93CF93DF936C017B018B01040F151F3A
:10048000EB015E01AE18BF08C017D10759F06991A2
:10049000D601ED91FC910190F081E02DC601099506
:1004A000892B79F7C501DF91CF911F910F91FF90B3
:1004B000EF90DF90CF90BF90AF900895FC01538DE7
:1004C000448D252F30E0842F90E0821B930B54172E
:1004D00010F0CF96089501970895FC01918D828DBB
:1004E000981761F0A28DAE0FBF2FB11D5D968C9154
:1004F000928D9F5F9F73928F90E008958FEF9FEF93
:100500000895FC01918D828D981731F0828DE80F4E
:10051000F11D858D90E008958FEF9FEF0895FC0108
:10052000918D228D892F90E0805C9F4F821B9109D5
:100530008F73992708958BE895E00E948F0221E040
:10054000892B09F420E0822F089580E090E0892B28
:1005500029F00E949B0281110C9400000895FC0177
:10056000A48DA80FB92FB11DA35ABF4F2C91848D14
:1005700090E001968F739927848FA689B7892C9371
:10058000A089B1898C91837080648C93938D848DC4
:10059000981306C00288F389E02D80818F7D8083C7
:1005A0000895EF92FF920F931F93CF93DF93EC0187
:1005B00081E0888F9B8D8C8D98131AC0E889F9890A
:1005C000808185FF15C09FB7F894EE89FF8960830D
:1005D000E889F98980818370806480839FBF81E08E
:1005E00090E0DF91CF911F910F91FF90EF900895D0
:1005F000F62E0B8D10E00F5F1F4F0F731127E02EAB
:100600008C8D8E110CC00FB607FCFACFE889F989E2
:10061000808185FFF5CFCE010E94AF02F1CFEB8D37
:10062000EC0FFD2FF11DE35AFF4FF0829FB7F894B6
:100630000B8FEA89FB8980818062CFCFCF93DF93D4
:10064000EC01888D8823B9F0AA89BB89E889F989EA
:100650008C9185FD03C0808186FD0DC00FB607FC1F
:10066000F7CF8C9185FFF2CF808185FFEDCFCE0152
:100670000E94AF02E9CFDF91CF910895833081F0DE
:1006800028F4813099F08230A9F008958730A9F0DC
:100690008830C9F08430B1F4809180008F7D03C030
:1006A000809180008F7780938000089584B58F7744
:1006B00084BD089584B58F7DFBCF8091B0008F7786
:1006C0008093B00008958091B0008F7DF9CFCF93D3
:1006D000DF93282F30E0F901E259FE4F8491F901B0
:1006E000E65AFE4FD491F901EA5BFE4FC491CC2348
:1006F000A1F081110E943E03EC2FF0E0EE0FFF1FEE
:10070000E45CFE4FA591B491EC91ED2381E090E083
:1007100009F480E0DF91CF91089580E090E0FACF76
:100720001F93CF93DF93282F30E0F901E259FE4F5A
:100730008491F901E65AFE4FD491F901EA5BFE4F2C
:10074000C491CC23A9F0162F81110E943E03EC2FF7
:10075000F0E0EE0FFF1FEE5CFE4FA591B4918FB756
:10076000F894EC91111108C0D095DE23DC938FBF73
:10077000DF91CF911F910895DE2BF8CF10924305A2
:100780001092420510921F051092410510928A05A1
:1007900081E0809389051092840561E082E10E94E6
:1007A000900361E083E10E949003E9EBF0E0808137
:1007B0008E7F808380818D7F808388E48093B800E2
:1007C00085E48093BC008FE292E090931B038093BA
:1007D0001A0380E392E0909319038093180308951D
:1007E000CF93DF9390E0FC01E65AFE4F24918A5BA1
:1007F0009E4FFC0184918823C9F090E0880F991FD7
:10080000FC01E85DFE4FA591B491FC01EE5CFE4F4A
:10081000C591D49161110DC09FB7F8948C9120952A
:1008200082238C938881282328839FBFDF91CF91D7
:100830000895623051F49FB7F8943C91822F8095CF
:1008400083238C93E8812E2BEFCF8FB7F894EC9114
:100850002E2B2C938FBFEACF3FB7F89480915A028A
:1008600090915B02A0915C02B0915D0226B5A89BBD
:1008700005C02F3F19F00196A11DB11D3FBFBA2F32
:10088000A92F982F8827BC01CD01620F711D811DF2
:10089000911D42E0660F771F881F991F4A95D1F777
:1008A00008958F929F92AF92BF92CF92DF92EF9274
:1008B000FF924B015C010E942C046B017C010E94A1
:1008C0002C046C197D098E099F09683E73408105CF
:1008D0009105A8F321E0821A9108A108B10888EED9
:1008E000C80E83E0D81EE11CF11C81149104A10400
:1008F000B10429F7FF90EF90DF90CF90BF90AF90B9
:100900009F908F9008952FB7F89460915602709140
:10091000570280915802909159022FBF089508956F
:10092000DC01ED91FC910480F581E02D0994CF93D9
:10093000DF9300D0CDB7DEB789836A8330E020E053
:1009400042E050E0BE016F5F7F4F88E296E00E9478
:1009500090040F900F90DF91CF910895CF93DF9384
:100960001F92CDB7DEB7698321E030E041E050E06F
:10097000BE016F5F7F4F0E94900489810F90DF91CD
:10098000CF9108950F931F93CF93DF93D82FC62F46
:10099000142F022F682F88E296E00E94AE0461E0D7
:1009A00070E002C0660F771F0A95E2F76150710987
:1009B000012E01C0660F0A94EAF72C2F01C0220F06
:1009C0001A95EAF7962F909589232623622F682B94
:1009D0008D2FDF91CF911F910F910C94970490E090
:1009E00080E0089508958091420590914305891B08
:1009F000990B0895FC01DB0112968D919C91139740
:100A00009383828385E391E09183808314968C9114
:100A10001497848315968C911597858316964D911E
:100A20005D916D917C91199746835783608771879B
:100A30001A964D915D916D917C911D9742875387D8
:100A4000648775871E964D915D916D917C9151974C
:100A500046875787608B718B52968C915297828B09
:100A600053964D915D916D917C915697438B548B2C
:100A7000658B768B57964D915D916D917C915A97D0
:100A8000478B508F618F728F5B968D919C91948F65
:100A9000838F08950895DC015996ED91FC9130976C
:100AA000B9F083899489A589B6894285538564857F
:100AB0007585841B950BA60BB70B811520E8920753
:100AC000A105B10538F08FEF9FE7A0E0B0E00895F1
:100AD00090E080E00895CF93DF931F92CDB7DEB70B
:100AE0006983DC01ED91FC910280F381E02D41E00E
:100AF00050E0BE016F5F7F4F09950F90DF91CF915E
:100B00000895CF93CFB7F89480914D02811127C0FB
:100B1000E0E5F1E08491E4E6F1E09491E82FF0E083
:100B2000EE0FFF1FE85DFE4FA591B491EC91E92314
:100B300021F461E08AE00E94900361E08AE00E9473
:100B4000F0038CB580618CBD8CB580648CBD61E098
:100B50008DE00E94F00361E08BE00E94F003809141
:100B60004D028F5F80934D02CFBFCF9108950895BE
:100B700061E0FC0184810E94900380914E0281110A
:100B800010924E0208958EBD00000DB407FEFDCFF9
:100B90008EB50895EF92FF920F931F93CF93DF933B
:100BA0009091DA069F3F41F4DF91CF911F910F9111
:100BB000FF90EF900C94C305D82FC0E007E010E041
:100BC000EE24E394F12CCC0F60E08091DA060E94D1
:100BD0009003B701002E01C0660F0A94EAF76D2357
:100BE0008091D8060E94900361E08091DA060E940D
:100BF00090038091D9060E946703892B09F0C16098
:100C00000150110900F78C2FDF91CF911F910F91A7
:100C1000FF90EF9008958FEF0C94C3050F931F93EF
:100C2000CF93DF93EC010E9483048B010E940B069B
:100C30008F3F69F00E948304601B710B6C177D0766
:100C4000A8F380E0DF91CF911F910F91089581E08B
:100C5000F9CF8CBD9DBD0895CF93DF93EC018091BA
:100C60004E02811109C081E080934E0280913406CA
:100C7000909135060E94290660E08C81DF91CF912A
:100C80000C9490038F929F92AF92BF92FF920F931A
:100C90001F93CF93DF93EC01F62E49015A018E8109
:100CA000882389F08F8198859C012F5F3F4F38877B
:100CB0002F838230924018F40E940B06F3CFCE01AE
:100CC0000E94B8051E82CE010E942C068CE291E0A3
:100CD0000E940E068F2D80640E94C30508E110E07B
:100CE000D501C401002E04C0B695A79597958795A8
:100CF0000A94D2F70E94C30508501109083F8FEFEC
:100D0000180771F785E9FF2021F028E087E8F21243
:100D10008FEF0E94C30510E00E940B068A8787FFB1
:100D200004C01F3F11F01F5FF7CFDF91CF911F91DC
:100D30000F91FF90BF90AF909F908F900895AF92CA
:100D4000BF92CF92DF92EF92FF920F931F93CF93B8
:100D5000DF93EC016901C801820F931F813092403B
:100D600050F58E81882379F088819981AA81BB8191
:100D700084179507A607B70731F48F819885C816A1
:100D8000D90608F042C0488359836A837B838B85E8
:100D9000833039F089E0440F551F661F771F8A950D
:100DA000D1F79A01AB0161E1CE010E94420688238E
:100DB00089F083E08D83CE010E94B80580E0DF9149
:100DC000CF911F910F91FF90EF90DF90CF90BF9048
:100DD000AF9008950E9483045B010E940B068A87EE
:100DE0008F3F69F40E9483046A197B096D32714058
:100DF000A0F38FE08D83CE010E94B805DCCF8E3F3B
:100E000089F418861F8281E08E838F8198858C15E6
:100E10009D0550F40E940B068F8198850196988756
:100E20008F83F3CF8DE0E6CF6701E00EF11E0E94C5
:100E30000B06F60181936F01EE15FF05C1F78F8157
:100E40009885080F191F18870F838985882319F043
:100E500001151240A0F08E81882389F08F8198853A
:100E60009C012F5F3F4F38872F838230924018F4C8
:100E70000E940B06F3CFCE010E94B8051E8281E0CE
:100E80009ECFEF92FF920F931F93CF93DF93EC01CE
:100E9000790182E1411551056105710599F08B8554
:100EA000833039F089E0440F551F661F771F8A95FC
:100EB000D1F79A01AB0168E1CE010E944206882376
:100EC00019F084E08D8330C08EEF0E94C305870146
:100ED0008EEFF81AF80181918F010E94C3050E155B
:100EE0001F05C1F78FEF0E94C3058FEF0E94C30556
:100EF0000E940B068A878F71853089F488E592E01D
:100F00000E940E068823A9F020E030E0A9016DE0E0
:100F1000CE010E944206882371F084E1D3CF81E1A3
:100F20008D83CE010E94B805CE010E94B80580E0F5
:100F30000AC085E1C7CF0E940B068111EECFCE011A
:100F40000E94B80581E0DF91CF911F910F91FF9032
:100F5000EF900895CF93DF9380914F028823A9F1FA
:100F6000C0911C05D0911D054091000150910101D7
:100F700060910201709103012CE133E0CE010E94E7
:100F80004107811104C080E0DF91CF910895409125
:100F900050025091510260915202709153024115DA
:100FA00051056105710579F02CE133E0CE010E9415
:100FB0004107882341F3109250021092510210927F
:100FC00052021092530210924F0281E0DDCF8F92B5
:100FD0009F92AF92BF92EF92FF920F931F93CF9386
:100FE0004B015C01C42F8091000190910101A091FF
:100FF0000201B091030188159905AA05BB0549F1C5
:101000000E94AA0781110BC080E0CF911F910F9120
:10101000FF90EF90BF90AF909F908F9008958CE1DC
:10102000E82E83E0F82E00E012E030E020E0B50189
:10103000A40180911C0590911D050E949F068823A4
:1010400019F38092000190920101A0920201B092E6
:10105000030140914F024C2B40934F0281E0D5CFCA
:101060008F929F92AF92BF92CF92DF92EF92FF92B8
:10107000CF9326E336E030931D0520931C0588238B
:1010800009F46DC040E060E070E0CB010E94E7072A
:1010900081110BC080E0CF91FF90EF90DF90CF9057
:1010A000BF90AF909F908F9008958091DA048F77D2
:1010B00089F78091E6049091E704A091E804B0914B
:1010C000E90484369105A105B10520F3C090E2043E
:1010D000D090E304E090E404F090E504C114D1045E
:1010E000E104F104B9F240E0C701B6010E94E7074C
:1010F000882381F2809127039091280381159240E3
:1011000049F6A0912C03AA2329F260912A03709139
:101110002B036115710509F4BDCF2091290322230A
:1011200009F4B8CFA09354062093460690E080E0DF
:1011300030E0E1E0F0E0C82FAF01082E02C0440F1C
:10114000551F0A94E2F72417350769F041E0480F6C
:1011500001968930910579F740934F069BCFC12CBA
:10116000D12C7601C0CF80934F062091320330916D
:10117000330350E040E02115310541F42091400354
:10118000309141034091420350914303209347061D
:10119000309348064093490650934A06460157014A
:1011A000860E971EA11CB11C809255069092560681
:1011B000A0925706B0925806E0912D03F0912E03AD
:1011C000F0935B06E0935A06B0E00E946827DC01CA
:1011D000CB01880D991DAA1DBB1D80935C069093C1
:1011E0005D06A0935E06B0935F0625E0EE0FFF1F3D
:1011F0002A95E1F7E150FE4FEF2FFF27E6958E0F7E
:101200009F1FA11DB11D8093500690935106A0937E
:101210005206B093530680902F0390903003B12C68
:10122000A12C8114910441F480903C0390903D03E3
:10123000A0903E03B0903F03C81AD90AEA0AFB0AFD
:10124000C80CD91CEA1CFB1C04C0F694E794D79484
:10125000C794CA95D2F7C0924B06D0924C06E09242
:101260004D06F0924E0685EFC8168FE0D806E104D1
:10127000F10428F48CE08093590681E00CCF80E1E2
:1012800025EFC2162FEFD206E104F104A0F38091FE
:10129000480390914903A0914A03B0914B03809376
:1012A0005C0690935D06A0935E06B0935F0680E2B5
:1012B000E2CF4F925F926F927F928F929F92AF9206
:1012C000BF92CF92DF92EF92FF920F931F93CF9333
:1012D000DF93EC01423051056105710590F480E027
:1012E000DF91CF911F910F91FF90EF90DF90CF9002
:1012F000BF90AF909F908F907F906F905F904F9036
:10130000089589859A85AB85BC850196A11DB11D7F
:1013100084179507A607B70710F3CB88DC88ED88FC
:10132000FE888F89803109F042C0BB27A72F962FF6
:10133000852F480159012A013B01C80ED91EEA1E1A
:10134000FB1E8091000190910101A0910201B091DA
:101350000301C816D906EA06FB0699F58F89803184
:10136000C1F5B301A201552766277727440F551F02
:10137000445E5C4FFA019182808280914F028160CD
:1013800080934F028A89823080F08D819E81AF8167
:10139000B8858C0D9D1DAE1DBF1D8093500290938E
:1013A0005102A0935202B093530281E099CFDB0126
:1013B000CA01E7E0B695A79597958795EA95D1F785
:1013C000B8CF40E0C701B6010E94E7078111C6CF40
:1013D00086CFB301A2014F77552766277727440FA1
:1013E000551F440F551F445E5C4FFA018082918265
:1013F000A282B382C2CF8F929F92AF92BF92CF92BE
:10140000DF92EF92FF920F931F93CF93DF93FC0134
:1014100081859285A385B4850196A11DB11D841790
:101420009507A607B70770F480E0DF91CF911F9171
:101430000F91FF90EF90DF90CF90BF90AF909F9073
:101440008F90089583889488A588B688878980318D
:1014500089F5BB27A72F962F852FE9016A017B010C
:101460008F01BC01CD01680D791D8A1D9B1D8090E7
:10147000000190900101A0900201B0900301861636
:101480009706A806B90601F5F8018789803111F59C
:10149000DD24EE24FF24F601EE0FFF1FE45EFC4F77
:1014A00080819181B0E0A0E088839983AA83BB8387
:1014B00081E0BBCFDB01CA01C7E0B695A795979540
:1014C0008795CA95D1F7C9CF40E00E94E7078111FF
:1014D000DBCFAACFE894C7F8DD24EE24FF24F60181
:1014E000EE0FFF1FEE0FFF1FE45EFC4F8081918126
:1014F000A281B381BF70D8CF4F925F926F927F92DB
:10150000AF92BF92CF92DF92EF92FF920F931F9311
:10151000CF93DF9300D000D0CDB7DEB78C014983E5
:101520005A836B837C835901C12CD12C7601412CC9
:1015300082E0582E612C712C49815A816B817C810B
:101540009E012F5F3F4FC8010E94FB09882339F19C
:10155000F8018585A301920104C0220F331F441FA7
:10156000551F8A95D2F7DA01C901C80ED91EEA1EA5
:10157000FB1E49815A816B817C818789803111F101
:1015800088EF9FEFAFEFBFE0481759076A077B0767
:1015900098F2F501C082D182E282F38281E00F905D
:1015A0000F900F900F90DF91CF911F910F91FF90AF
:1015B000EF90DF90CF90BF90AF907F906F905F9053
:1015C0004F90089588EF9FEFA0E0B0E0DDCFCF937C
:1015D000DF93FC012581222321F080E0DF91CF9170
:1015E0000895EC0180915906803159F582E0858398
:1015F000178A108E118E128E80915A0690915B067A
:10160000B0E0A0E025E0880F991FAA1FBB1F2A9514
:10161000D1F7838B948BA58BB68B82E496E09C8F5D
:101620008B8F81E08C831E821F82188619861A8612
:101630001B861C861D861E861F86188A198A1A8A92
:10164000CDCF803251F683E0858340915C06509186
:101650005D0660915E0670915F06478B508F618FCB
:10166000728F9F012D5E3F4F82E496E00E947C0ABC
:101670008111D3CFB2CF8F929F92AF92BF92CF9270
:10168000DF92EF92FF920F931F93CF93DF93EC01C2
:101690008D8181110EC080E0DF91CF911F910F915C
:1016A000FF90EF90DF90CF90BF90AF909F908F9082
:1016B00008950B891C892D893E8904171507260773
:1016C000370748F34A015B01823031F48A869B86F2
:1016D000AC86BD8681E0E0CF81149104A104B10401
:1016E00049F41E821F82188619861A861B861C865C
:1016F0001D86F0CF0A851B852C853D85EB8DFC8DE5
:10170000858590E00996B901A80141505109610908
:101710007109082E04C076956795579547950A94E8
:10172000D2F775016401E1E0CE1AD108E108F108B1
:1017300004C0F694E794D794C7948A95D2F7C41658
:10174000D506E606F70620F0012B022B032B11F538
:101750008F89988DA98DBA8D8E839F83A887B9872D
:101760008E010A5F1F4FC114D104E104F10409F492
:10177000ADCF4E815F816885798598018B8D9C8D79
:101780000E94FB0991E0C91AD108E108F108811112
:10179000EACF81CFC41AD50AE60AF70AE1CF3F9211
:1017A0004F925F926F927F928F929F92AF92BF9271
:1017B000CF92DF92EF92FF920F931F93CF93DF931D
:1017C000CDB7DEB72C970FB6F894DEBF0FBECDBFF6
:1017D0005C01DC015B968D909C905C9716964D9019
:1017E0005D906D907C9019974114510461047104CF
:1017F00009F468C0BFEF4B1A5B0A6B0A7B0A312CF5
:10180000F40181859285A385B4859C01AD012F5F8C
:101810003F4F4F4F5F4F29873A874B875C87730154
:1018200062011D821E821F821886F40181859285C5
:10183000A385B4852D813E814F81588528173907AE
:101840004A075B0708F056C089859A85AB85BC8539
:101850008C159D05AE05BF0550F482E0C82ED12C35
:10186000E12CF12C92E0492E512C612C712C9E011F
:101870002F5F3F4FB701A601C4010E94FB098823D7
:10188000C9F189819A81AB81BC81892B8A2B8B2BF1
:1018900009F1260137019FEF491A590A690A790AA5
:1018A0002D813E814F8158852F5F3F4F4F4F5F4FB6
:1018B0002D833E834F8358873FEFC31AD30AE30A31
:1018C000F30AB3CFF40140805180628073803324E7
:1018D000339496CFC414D504E604F70409F70FEF48
:1018E0001FEF2FEF3FE0B701A601C4010E94590985
:1018F000811119C080E02C960FB6F894DEBF0FBEA0
:10190000CDBFDF91CF911F910F91FF90EF90DF90AE
:10191000CF90BF90AF909F908F907F906F905F908F
:101920004F903F900895F5014681578160857185FC
:10193000411551056105710539F097018601C40112
:101940000E9459098823B1F2D5011696CD92DD92F5
:10195000ED92FC921997332051F0D701C601019600
:10196000A11DB11DF40180839183A283B383F5018E
:101970008789908DA18DB28D892B8A2B8B2B39F481
:10198000C78AD08EE18EF28E84818068848381E064
:10199000B2CF2F923F924F925F926F927F928F922F
:1019A0009F92AF92BF92CF92DF92EF92FF920F93EE
:1019B0001F93CF93DF9300D01F92CDB7DEB7FC010A
:1019C0008581811118C08FEF9FEF0F900F900F90BE
:1019D000DF91CF911F910F91FF90EF90DF90CF900B
:1019E000BF90AF909F908F907F906F905F904F903F
:1019F0003F902F900895848180FFE5CF43895489DB
:101A00006589768982859385A485B585312C212CBD
:101A1000481759076A077B0719F022242394312CB1
:101A20006F012101CE0101963C01DF011696BB83B7
:101A3000AA834114510409F4C5C0F60142855385B7
:101A4000648575854A01F1E09F22D6015B968D91F0
:101A50009C915C978A019B01E9E036952795179543
:101A60000795EA95D1F71596EC91E230E9F5FC017E
:101A7000628D738D848D958D600F711F821F931FF2
:101A8000A12C22E0B22EA818B9084A145B0408F46D
:101A90005201F601248126FD04C0A114F2E0BF0624
:101AA00071F4009100011091010120910201309127
:101AB0000301061717072807390709F05EC040E041
:101AC0000E94E707882309F47ECFC401845E9C4FFF
:101AD000D3019C012A0D3B1DFC012E173F0709F481
:101AE0006CC041914D93F9CFDC011496BC90BA942F
:101AF000B0228114910479F4B1100DC0452B462B0E
:101B0000472B69F5F6018789908DA18DB28D86836B
:101B10009783A087B187D6015B96ED91FC915C9786
:101B200016966D917D918D919C91199762507109D6
:101B300081099109258504C0660F771F881F991FA9
:101B40002A95D2F70685178520893189600F711F84
:101B5000821F931F6B0D711D811D911D91CFD601A9
:101B600016964D915D916D917C9119972A813B81DB
:101B70000E94FB098111CFCF26CF7301850194010B
:101B8000AB01BC0180911C0590911D050E949F0630
:101B9000882309F418CF6A0C7B1CF6018285938593
:101BA000A485B5858A0D9B1DA11DB11D82879387D4
:101BB000A487B5874A185B083CCF281B390B620EF7
:101BC000731EEBCF2A94232809F0FDCE898190E083
:101BD000FCCEFC01818D928D009711F00C94C90C04
:101BE0008FEF9FEF08950F931F93CF93DF93EC0137
:101BF000898D9A8D10E000E0009799F00E94C90C41
:101C00008C010F3F100769F0898D9A8DFC01428588
:101C100053856485758541505109610971090E9498
:101C20003B0BC801DF91CF911F910F910895CF9386
:101C3000DF93EC018D81882389F18C8187FF2AC095
:101C40006E857F858889998941E00E94E70788230E
:101C500029F1EA8980E2E89FF0011124E45EFC4F5B
:101C60003097E1F08D81823040F48B899C89AD8979
:101C7000BE89848F958FA68FB78F8F89988D938F0C
:101C8000828F8F89988DA98DBA8DB58BA48B8C810D
:101C90008F778C83DF91CF910C94AA0780E0DF913E
:101CA000CF910895CF93DF93EC010E94170E882304
:101CB00011F01D8281E0DF91CF910895FC01818DAB
:101CC000928D009711F00C94170E08952F923F9269
:101CD0004F925F926F927F928F929F92AF92BF923C
:101CE000CF92DF92EF92FF920F931F93CF93DF93E8
:101CF00000D000D0CDB7DEB78C015B011A01DC014A
:101D000015968C911597813009F0C8C014968C9166
:101D100081FFC4C082FDAEC06101D8011A964D9109
:101D20005D916D917C911D97C114D10409F429C175
:101D30005B968D919C915C97FC0174802FEF270D31
:101D40002A013B0139E076946794579447943A9579
:101D5000D1F7722E74207A01F1E0FF22711020C0B9
:101D6000E114F104E9F416964D915D916D917C9129
:101D70001997411551056105710509F098C05796ED
:101D80008D919D910D90BC91A02D0097A105B1055D
:101D900009F0AFC0C8010E94CF0B882309F47EC0B0
:101DA00080E092E08E199F0946018C159D0508F48C
:101DB0004C01D8015B964D915C915C9716968D9184
:101DC0009D910D90BC91A02D0297A109B109FA0136
:101DD000258504C0880F991FAA1FBB1F2A95D2F71B
:101DE0004685578560897189840F951FA61FB71F87
:101DF0009C01AD01270D311D411D511D29013A01E5
:101E0000811432E0930609F07AC08091000190912C
:101E10000101A0910201B091030184159505A60569
:101E2000B70559F48FEF9FEFDC0180930001909389
:101E30000101A0930201B09303019501B301A20136
:101E400080911C0590911D050E944107882331F166
:101E50009EEFB91AC818D908F80182859385A48520
:101E6000B585880D991DA11DB11D82879387A48713
:101E7000B58753CFF801438954896589768982856E
:101E80009385A485B585481759076A077B0709F428
:101E900043CFC8010E943B0B81113ECF81E090E00F
:101EA000D80113969C938E93129780E007C09E01F1
:101EB0002F5F3F4F0E94FB09811102C090E077C065
:101EC00089819A81AB81BC81F801238D348DF90120
:101ED000278948EF5FEF60E070E0203121F048EFA4
:101EE0005FEF6FEF7FE084179507A607B70708F04D
:101EF00051CFF80186839783A087B18751CFE11432
:101F0000F10491F5D8011A964D915D916D917C91F6
:101F10001D9753968D919D910D90BC91A02D4817C2
:101F200059076A077B0700F10E94AA07882309F472
:101F3000B5CF40920001509201016092020170926F
:101F4000030180914F02816080934F029701245ECC
:101F50003C4FD501C901880D991DF9018E179F07C6
:101F600059F04D914193FACF41E0C301B2010E9473
:101F7000E7078111EBCF92CF821B930BA80EB91EFE
:101F800069CFF80183899489A589B6898417950753
:101F9000A607B70738F48481438B548B658B768B07
:101FA00080688483F801848183FD18C0C1010F908B
:101FB0000F900F900F90DF91CF911F910F91FF9095
:101FC000EF90DF90CF90BF90AF909F908F907F90D9
:101FD0006F905F904F903F902F900895C8010E949E
:101FE000170E882309F45ACFE1CFCF93DF931F92C6
:101FF000CDB7DEB7698341E050E0BE016F5F7F4F30
:102000000E94660E0F90DF91CF910895CF93DF93DA
:10201000EC01E98DFA8D309749F481E090E09B83E3
:102020008A8390E080E0DF91CF910895138212823D
:10203000898D9A8D0E94660EE98DFA8D22813381F9
:10204000232B59F7F0CF85ED8093BC008091BC0025
:1020500084FDFCCF10928A05089520912A02260F54
:102060003327331F21323105ECF420918A05FC011E
:1020700090E080E0243069F082E00895A0912A0287
:102080002191AC01465F5D4FA40FB52FB11D2C937C
:102090000196861798F380912A02680F60932A02AE
:1020A00080E0089581E00895E09143058091420524
:1020B000E81730F4F0E0EC5BFA4F808190E008958F
:1020C0008FEF9FEF089590914305809142052FEF88
:1020D0003FEF981748F4E92FF0E0EC5BFA4F2081CE
:1020E00030E09F5F90934305C9010895CF92DF923E
:1020F000EF92FF920F931F93CF93DF937C01CB015D
:102100008A0120911E05222389F0EB016B01C40E88
:10211000D51ECC15DD0569F06991D701ED91FC91D3
:102120000190F081E02DC7010995F3CF642F0E9443
:102130002D10C801DF91CF911F910F91FF90EF906B
:10214000DF90CF900895CF93DF931F92CDB7DEB786
:10215000698320911E052223F9F020914105203248
:1021600058F021E030E0FC013383228390E080E0EE
:102170000F90DF91CF91089580911F05E82FF0E037
:10218000E05EFA4F998190838F5F80931F05809363
:10219000410581E090E0ECCF61E0CE0101960E9424
:1021A0002D10F7CFCF93DF93D82FC62F8091D7066E
:1021B0008F3FC9F48091CE0691E090931E058093E5
:1021C000400510921F05109241056D2F8FE796E094
:1021D0000E94A3106C2F8FE796E00E94A310DF915E
:1021E000CF910C9456018091DA068F3F21F482E55D
:1021F00091E00E94290660E08091D7060E9490033A
:102200008D2F8F770E94CA058C2F0E94CA0561E02E
:102210008091D706DF91CF910C94900390E080E0FD
:102220000895CF92DF92EF92FF920F931F93CF9377
:10223000DF9301E111E0D0E0C0E0C12CD12C7601A8
:10224000C394F80181918F010E946703B701A60131
:102250000C2E04C0440F551F661F771F0A94D2F737
:1022600020916102892B81F4422B409361022196D7
:10227000C430D10531F7DF91CF911F910F91FF90BD
:10228000EF90DF90CF90089540954223EECF0E94CB
:102290001401109243058093420508958F929F92F6
:1022A000AF92BF92CF92DF92EF92FF92F82E809181
:1022B000D7068F3F09F04CC08091CE0691E09093F5
:1022C0001E058093400510921F05109241056F2D49
:1022D0008FE796E00E94A3100E94560163E0809170
:1022E000CE060E9447118FE796E00E9463104C01D2
:1022F000990FAA08BB08BA2CA92C982C88248FE720
:1023000096E00E946310092E000CAA0BBB0B882AD2
:10231000992AAA2ABB2ABA2CA92C982C88248FE7A0
:1023200096E00E946310092E000CAA0BBB0B6C01F7
:102330007D01C828D928EA28FB28C701B601FF90EB
:10234000EF90DF90CF90BF90AF909F908F900895C7
:102350008091DA068F3F21F482E591E00E94290600
:1023600060E08091D7060E9490038F2D0E94CA05DD
:1023700080E00E94CA0590E0B0E0A0E0CC24D82E16
:10238000E92EFA2E80E00E94CA05C82AFE2CED2C08
:10239000DC2CCC2480E00E94CA05C82A61E0809130
:1023A000D7060E949003C9CFCF93DF93C82F8091A7
:1023B000D7068F3F51F58091CE0691E090931E0590
:1023C0008093400510921F05109241056C2F8FE7F6
:1023D00096E00E94A3100E94560162E08091CE0612
:1023E0000E9447118FE796E00E946310C82F8FE785
:1023F00096E00E94631020E03C2FE901C82BD92B06
:102400009C2F8D2FDF91CF9108958091DA068F3F19
:1024100021F482E591E00E94290660E08091D706D0
:102420000E9490038C2F0E94CA0580E00E94CA057A
:10243000C82F80E00E94CA05DC2FC82F61E0809180
:10244000D7060E949003DCCFCF93C82F8091D70688
:102450008F3FF9F48091CE0691E090931E05809312
:10246000400510921F05109241056C2F8FE796E0F2
:102470000E94A3100E94560161E08091CE060E9446
:1024800047118FE796E00E946310C82F8C2FCF91E1
:1024900008958091DA068F3F21F482E591E00E9451
:1024A000290660E08091D7060E9490038C2F0E943D
:1024B000CA0580E00E94CA05C82F61E08091D70656
:1024C0000E949003E3CFCF92DF92EF92FF921F938F
:1024D000CF93DF93EC0180E2689FF0011124E45E6A
:1024E000FC4F9385917161F0842F827449F080E0F4
:1024F000DF91CF911F91FF90EF90DF90CF900895E3
:10250000142F6A8B8091000190910101A09102012A
:10251000B09103018E879F87A88BB98BC488D5881B
:10252000F12CE12C7601DD24CC24CF8AD88EE98EE3
:10253000FA8E828D938DB0E0A0E0AC01BD014C29F4
:102540005D296E297F294F8B588F698F7A8F8385FC
:102550008871B1F4848D958DA68DB78D8B8B9C8BF6
:10256000AD8BBE8B81E08D831F701C831E821F820A
:10257000188619861A861B861C861D8681E0B8CFB0
:10258000803109F0B4CF9E012D5E3F4F8B8D9C8D25
:102590000E947C0A882309F4AACF84E0E4CFFB01DF
:1025A00001900020E9F73197AF01461B570BDC0182
:1025B000ED91FC910280F381E02D0994CF93DF939C
:1025C000BC018BE895E00E94CF12EC016DE671E052
:1025D0008BE895E00E94CF128C0F9D1FDF91CF9169
:1025E00008958F929F92AF92BF92CF92DF92EF9217
:1025F000FF920F931F93CF93DF937C01EB018A012E
:102600005901FC01828593858130910591F00297F3
:1026100009F453C090E080E0DF91CF911F910F91BA
:10262000FF90EF90DF90CF90BF90AF909F908F90F2
:102630000895868191E090931E0580934005109245
:102640001F05109241056B01060F171F4B0108155E
:10265000190541F0F40161914F018FE796E00E9466
:10266000A310F5CF0E945601882321F080E791E066
:102670000E94DE12A114B10469F26A2D613208F0E1
:1026800060E2F70186810E941401182F1092430521
:1026900080934205CA0DDB1D80914305181709F48C
:1026A000B9CFCC15DD0509F4B5CF8FE796E00E94D0
:1026B0006310F60181936F01EFCF232B19F088810E
:1026C00080688883F7018085918597FD03C060E06D
:1026D0000E9490036E010C0F1D1F4E010815190575
:1026E00061F4CA0DDB1DCC16DD0669F080E00E94A6
:1026F000C305F60181936F01F6CFF40181914F017B
:102700000E94C305EBCFF7018085918597FD82CFAD
:1027100061E00E9490037ECFCF93DF93EC018A8526
:102720009B858130910529F00297C9F0DF91CF9107
:1027300008950E94BE038E8191E090931E058093C0
:10274000400510921F05109241050E9456018823F2
:1027500069F38FE891E0DF91CF910C94DE120E9433
:1027600081058885998597FD05C061E0DF91CF914E
:102770000C94F00387EB91E0EECF2F923F924F92B3
:102780005F926F927F928F929F92AF92BF92CF9201
:10279000DF92EF92FF920F931F93CF93DF93CDB70A
:1027A000DEB72B970FB6F894DEBF0FBECDBF7C010E
:1027B000FE013196CE010C966F0130E23193E8179D
:1027C000F907E1F7DA0130E087E09D91B92E99230E
:1027D00009F43DC09E32F9F48A30D1F480E02B96A2
:1027E0000FB6F894DEBF0FBECDBFDF91CF911F9122
:1027F0000F91FF90EF90DF90CF90BF90AF909F90A0
:102800008F907F906F905F904F903F902F900895A2
:1028100038E08AE0DACFE8E1F1E04491442321F0A6
:1028200031969413FACFDACF8317C0F24FED490FE8
:102830004E35A0F64FE9490F4A3118F440EEB42E58
:10284000B90EF601E30FF11DB0823F5FBECF898163
:10285000803221F2A22E8B01DB015B968D919C913F
:102860005C97F701948F838F16961D921D921D928F
:102870001C921997FB011286138614861586F8019F
:1028800082859385A485B585438954896589768930
:1028900084179507A607B70708F04DC025E0B69541
:1028A000A795979587952A95D1F7F82FFF709F2EBA
:1028B000D80115968C91823008F490CFC8010E94FF
:1028C000C90C97FD8BCFF80182859385A485B585CA
:1028D0004F96A11DB11D82879387A487B587F0E22B
:1028E0009F9EB0011124645E7C4F6115710509F44F
:1028F00075CFDB018C91882341F0853E09F061C0E2
:10290000BB2029F0BB24B394BACFB1100EC0F7019D
:10291000928A8091000190910101A0910201B091F1
:10292000030186879787A08BB18BDB018C91811186
:10293000E9CFBB24B3942A2D2271223109F04ECF66
:10294000BB2009F44CC0F7016685778580899189A1
:1029500041E00E94E707882309F440CFD70152964F
:102960008C91B0E28B9FC0011124845E9C4F009734
:1029700009F434CFFC013A9626E1DF011D922A9535
:10298000E9F72BE0F601DC0101900D922A95E1F7C1
:1029900021E238E2FC01318B208B40E058E0578780
:1029A0004687338B228B318F208F578B468B0E942B
:1029B000AA07882309F412CF42E1D70152966C91FD
:1029C0000AC04BE050E0C6010E94292F892B09F074
:1029D00056CF4A2D692DC7010E94631200CFF8011E
:1029E0008581823009F4FACEC8010E94CF0B88237A
:1029F00009F4F4CED8015B96ED91FC915C971696A4
:102A00008D909D90AD90BC901997B2E08B1A910873
:102A1000A108B108858504C0880C991CAA1CBB1CA0
:102A20008A95D2F786859785A089B189880E991EE7
:102A3000AA1EBB1E848124013501480E511C611C55
:102A4000711C8CE1282E85E0382E84149504A60490
:102A5000B704F1F0E1E04E1A5108610871080E94D4
:102A6000AA07882309F4BACEECE1F3E011922E16FE
:102A70003F06E1F74092000150920101609202018D
:102A80007092030180914F02816080934F02DDCFED
:102A9000D8015B96ED91FC91258580E092E0A0E065
:102AA000B0E004C0880F991FAA1FBB1F2A95D2F758
:102AB000F8014389548965897689840F951FA61F7B
:102AC000B71F838B948BA58BB68BD70152961C9224
:102AD0008CE193E04FCFEF92FF920F931F93CF9330
:102AE000DF93EC017B018A011B821A8288EE93E05E
:102AF000A0E0B0E08C839D83AE83BF8383E591E04B
:102B0000998388838DE190E00E94042E9A8F898FAB
:102B1000009779F02DE1F701DC0101900D922A95E3
:102B2000E1F74CE050E0B801CE010C960E94412F35
:102B3000188EDF91CF911F910F91FF90EF90089524
:102B40002F923F924F925F926F927F928F929F92BD
:102B5000AF92BF92CF92DF92EF92FF920F931F93AB
:102B6000CF93DF93CDB7DEB76F970FB6F894DEBF84
:102B70000FBECDBF82E1898326E030E041E050E026
:102B8000BE016F5F7F4F88E296E00E94900449810A
:102B90005A812B813C818D819E81509313034093F8
:102BA000120330931503209314039093170380931B
:102BB00016038CE0898326E030E041E050E0BE015E
:102BC0006F5F7F4F88E296E00E94900449815A81AE
:102BD0002B813C818D819E8150930502409304029C
:102BE0003093070220930602909309028093080213
:102BF0008AEF0E944E110091DB061091DC0630E056
:102C000020E0C72ED82EE92EFF24E7FCFA94C01A44
:102C1000D10AE20AF30AB7E095958795779567950B
:102C2000BA95D1F7000F111F221F331F4B015C0112
:102C3000801A910AA20AB30AA5019401A091DD06A7
:102C4000B091DE060E9473274B015C015BE0B594F6
:102C5000A794979487945A95D1F7A7019601C70135
:102C6000B6010E94372C9B01AC016CE0559547954D
:102C7000379527956A95D1F7A091DF06B091E006C8
:102C80000E947327EEE09595879577956795EA956D
:102C9000D1F7860E971EA81EB91E8092D306909279
:102CA000D406A092D506B092D60687EF0E944E11A8
:102CB0006C8F7D8F8E8F9F8F8091D3069091D406DD
:102CC000A091D506B091D6066C017D01FF0CCC0811
:102CD000DC2C76019C01AD016C2D7C2D8C2D9C2D66
:102CE000345F4140510961097109810991092F83BC
:102CF000388749875A876B877C878D879E875901DC
:102D00006A017B018C010E94672C2F87388B498BCD
:102D10005F8B688F798F8A8F9B8F3091E40620912B
:102D2000E306932F990F990B492F592F692F792F6C
:102D3000892F0E94672C0CE00E94962D722E832E04
:102D4000942E652E562E472E382E292E3091E606CB
:102D50002091E506932F990F990BAF84B888C98805
:102D6000DF88E88CF98C0A8D1B8D492F592F692F2C
:102D7000792F892F0E94672C08E00E94AF2DA72C85
:102D8000B82CC92CD62CE52CF42C032D122D0E9426
:102D9000CC2D70588F4F9F4F2090E1063090E20667
:102DA0005101C12CD12CE12CF12C00E010E00E944B
:102DB000672C01E20E94AF2D2A8B3B8B4C8B5D8BE5
:102DC0006E8B272E382E492EA0E00E94DE2D09F4AE
:102DD00096C13091EC062091EB06932F990F990B39
:102DE000AF84B888C988DF88E88CF98C0A8D1B8D80
:102DF000492F592F692F792F892F0E94672C2F87F0
:102E0000388B498B552E3B014C013091EA062091BD
:102E1000E906932F990F990BAF80B884C984DA849F
:102E2000EB84FC840D851E85492F592F692F792F3E
:102E3000892F0E94672C01E10E94962DAF84B888EB
:102E4000C988D52C730184010E94CC2D59016A01D7
:102E50007B01582E192F4C8D5D8D6E8D7F8D24E05A
:102E600075956795579547952A95D1F780E090E03D
:102E7000A0E1B0E0841B950BA60BB70B3C014D0104
:102E8000990C6608762C43019C01AD01662D762DC8
:102E9000862D962D0FE10E94962D39014A01B62FFD
:102EA000A72FF82FE92F3091E8062091E706932FFE
:102EB000990F990B492F592F692F792F892F03E2E9
:102EC0000E94962D052D0E94CC2D59016A017B018F
:102ED0008C019301A4016B2F7A2F8F2F9E2F0E94BC
:102EE000D52DE5E3AE2EFCE0BF2EC12CD12CE12C7C
:102EF000F12C00E010E00E94672CAA88BB88CC88E7
:102F0000DD88EE88F22C032D142D0E94C12C2F8316
:102F1000388749875A876B877C878D879E870DE026
:102F20000E94AF2D922E832E742E652E562E472E84
:102F3000382E292E3091F2062091F106932F990F09
:102F4000990BA92CB82CC72CD62CE52CF42C032DCE
:102F5000122D492F592F692F792F892F0E94672C05
:102F60000E94672C09E10E94AF2DAF80B884C9840C
:102F7000DA84EB84FC840D851E850E94CC2D19011A
:102F80002A013B014C013091F0062091EF06932F6E
:102F9000990F990B492F592F692F792F892F0E944B
:102FA000672C03E10E94AF2D59016A017B018C015E
:102FB0009101A201B301C4010E94CC2D08E00E943E
:102FC000AF2D59016A017B01E82F192F3091EE06D0
:102FD0002091ED06932F990F990B492F592F692FA7
:102FE000792F892F04E00E94962D0E2F0E94CC2D60
:102FF0000E94312920E030E040E85BE30E946B2A28
:1030000020E030E048EC52E40E94902820E030E5D7
:103010004DE754E40E94902821E03EED42E45EE357
:103020000E94D82A9B01AC0160E070E080E89FE339
:103030000E94AC2720E03AE24DE257E40E946B2A5E
:103040006093E5027093E6028093E7029093E802B2
:10305000C0901403D0901503D194C194D10884E09A
:10306000882E82E0982E95EEA92E92E0B92E10E0DF
:1030700000E00D2C000CEE08FF080330110509F4E8
:1030800042C0F40160817181072E000C880B990BFE
:103090000E94392920E030E04AEF53E40E946B2A75
:1030A00020E030E040E058E30E946B2AF5016483A1
:1030B0007583868397830F5F1F4FF2E08F0E911CFD
:1030C00084E0A80EB11C04301105B9F66F960FB656
:1030D000F894DEBF0FBECDBFDF91CF911F910F914E
:1030E000FF90EF90DF90CF90BF90AF909F908F9028
:1030F0007F906F905F904F903F902F90089560E089
:1031000070E0CB017DCFC701B6010E94392920E0D4
:1031100030E040E851E40E946B2A20E030E040E0DB
:1031200058E30E946B2A6093F5027093F602809335
:10313000F7029093F802BFCF1F920F920FB60F9233
:1031400011242F933F934F935F936F937F938F93AC
:103150009F93AF93BF93EF93FF938BE895E00E940B
:10316000AF02FF91EF91BF91AF919F918F917F91AE
:103170006F915F914F913F912F910F900FBE0F90E4
:103180001F9018951F920F920FB60F9211242F9334
:103190008F939F93EF93FF93E0919B05F0919C0594
:1031A0008081E091A105F091A20582FD1BC0908174
:1031B0008091A4058F5F8F732091A505821741F040
:1031C000E091A405F0E0E557FA4F958F8093A405B0
:1031D000FF91EF919F918F912F910F900FBE0F90C4
:1031E0001F9018958081F4CF1F920F920FB60F9207
:1031F00011242F933F938F939F93AF93BF9380910D
:10320000560290915702A0915802B0915902309104
:10321000550223E0230F2D3758F50196A11DB11D4E
:10322000209355028093560290935702A093580220
:10323000B093590280915A0290915B02A0915C0276
:10324000B0915D020196A11DB11D80935A02909329
:103250005B02A0935C02B0935D02BF91AF919F911E
:103260008F913F912F910F900FBE0F901F90189547
:1032700026E8230F0296A11DB11DD2CF1F920F92F7
:103280000FB60F9211242F933F934F935F936F9339
:103290007F938F939F93AF93BF93EF93FF93E091AF
:1032A0000601F09107010995FF91EF91BF91AF9150
:1032B0009F918F917F916F915F914F913F912F914E
:1032C0000F900FBE0F901F9018951F920F920FB680
:1032D0000F9211242F933F934F935F936F937F939C
:1032E0008F939F93AF93BF93EF93FF93E09104016C
:1032F000F09105010995FF91EF91BF91AF919F91D9
:103300008F917F916F915F914F913F912F910F908E
:103310000FBE0F901F9018951F920F920FB60F922D
:1033200011242F933F934F935F936F937F938F93CA
:103330009F93AF93BF93CF93DF93EF93FF938091CE
:103340005402C091AF06D0E087FF24C010928500E0
:1033500010928400809154028F5F80935402809178
:103360005402082E000C990B8C179D0724F48091B1
:1033700054028C30C4F180918400909185000496B1
:1033800080349C4908F47AC0809184009091850033
:10339000049676C080915402082E000C990B8C176D
:1033A0009D07C4F6E09154028E2FEE0F990BFC019D
:1033B000EE0FFF1FE80FF91FE557F94F808186FFD9
:1033C000C9CFE09154028E2FEE0F990BFC01EE0F46
:1033D000FF1FE80FF91FE557F94F808160E08F73F9
:1033E0000E949003B7CF2091840030918500E09136
:1033F00054028E2FEE0F990BFC01EE0FFF1FE80F0A
:10340000F91FE557F94F81819281820F931F9093A5
:10341000890080938800E09154028E2FEE0F990B63
:10342000FC01EE0FFF1FE80FF91FE557F94F8081F0
:1034300086FF11C0E09154028E2FEE0F990BFC0114
:10344000EE0FFF1FE80FF91FE557F94F808161E08C
:103450008F730E949003FF91EF91DF91CF91BF9105
:10346000AF919F918F917F916F915F914F913F911C
:103470002F910F900FBE0F901F90189580E49CE93C
:1034800090938900809388008FEF80935402E3CF5C
:103490001F920F920FB60F9211242F933F934F93C9
:1034A0005F936F937F938F939F93AF93BF93EF93AC
:1034B000FF938091B900887F803609F44AC0F0F507
:1034C000883209F4A7C018F5803109F49BC0B8F41C
:1034D000882309F4F9C0883009F494C0FF91EF9172
:1034E000BF91AF919F918F917F916F915F914F911C
:1034F0003F912F910F900FBE0F901F90189588311C
:1035000009F488C0803251F78093880514C0803454
:1035100009F49DC040F48033B9F38833F9F6809301
:10352000880585ECB0C0803509F485C0883509F47C
:1035300096C0883499F60E942310D0CF883909F4B8
:103540008CC038F5883729F050F4883611F0803770
:1035500029F683E080938A0510924C0257C0883880
:1035600009F47BC0803919F0803809F0B7CF809119
:103570004C02803208F071C0E0914C0281E08E0F65
:1035800080934C028091BB00F0E0E45DFD4F8083AE
:103590003DC0803B39F0E0F4803A09F479C0883AC4
:1035A00009F09CCF84E080938A0510922B02109240
:1035B0002A02E0911A03F0911B03099580912A02D7
:1035C00081110FC081E080932A0210920A0209C083
:1035D000803C09F4A6CF883C09F4A3CF883B09F0CE
:1035E0007DCFE0912B0281E08E0F80932B02F0E0E3
:1035F000E65FFD4F80818093BB0090912B0280910C
:103600002A0229C0809185058093BB0085EC8093B8
:10361000BC0064CF9091870580918605981758F576
:10362000E091870581E08E0F80938705F0E0EC59EB
:10363000FA4F8081E9CFE091870581E08E0F80937A
:1036400087058091BB00F0E0EC59FA4F80839091A0
:103650008705809186059817C8F285E8D8CFE09154
:10366000870581E08E0F809387058091BB00F0E095
:10367000EC59FA4F80838091890581115CCF81E0FC
:103680008093840584EA8093BC0010928A0526CF3B
:1036900085EC8093BC0010928A0580914C028032A8
:1036A00030F4E0914C02F0E0E45DFD4F1082609157
:1036B0004C0270E0E0911803F09119038CE292E063
:1036C000099510924C020ACF1092880534CF682FCA
:1036D00080EB96E00C946B058F929F92AF92BF9215
:1036E0000F931F93CF93DF93CDB7DEB7A1970FB69C
:1036F000F894DEBF0FBECDBF19A2423008F44AE0F5
:103700008E010F5D1F4F842E912CB12CA12CA50191
:1037100094010E947B27E62FB901CA01EA3004F523
:10372000E05DD801EE938D01232B242B252B79F717
:1037300090E080E0109729F0BD0180EB96E00E94B8
:10374000CF12A1960FB6F894DEBF0FBECDBFDF91AA
:10375000CF911F910F91BF90AF909F908F90089540
:10376000E95CDFCF4F925F926F927F928F929F9230
:10377000AF92BF92CF92DF92EF92FF920F931F937F
:10378000CF936B017C01742EAC019B010E942C2B0A
:1037900061E671E0811126C046015701E894B7F84F
:1037A0002FEF3FEF4FE75FE7C501B4010E942C2BDD
:1037B00081110CC02FEF3FEF4FE75FE7C501B40168
:1037C0000E948B2865E671E0181664F02FEF3FEF3A
:1037D0004FE75FE4C701B6010E945E2A1816ACF4F9
:1037E00069E671E080EB96E0CF911F910F91FF9019
:1037F000EF90DF90CF90BF90AF909F908F907F9091
:103800006F905F904F900C94CF122FEF3FEF4FE7E8
:103810005FECC701B6010E948B2887FDE1CF20E055
:1038200030E0A901C701B6010E948B2810E000E03A
:1038300087FF08C08DE20E94671B8C01F7FAF094A5
:10384000F7F8F094C0E060E070E080E09FE37C1661
:1038500041F020E030E040E251E40E949028CF5F48
:10386000F6CFA70196010E94AD272B013C010E94D3
:1038700002294B015C014AE00E946C1B7C01E00EB6
:10388000F11ECC23B1F1C501B4010E9437299B017F
:10389000AC01C301B2010E94AC274B015C018EE276
:1038A0000E94671BE80EF91EC15018F120E030E0BD
:1038B00040E251E4C501B4010E946B2A2B013C0196
:1038C0000E9402294B01B12CA12C4AE0C501B40190
:1038D0000E946C1BE80EF91EC501B4010E94372935
:1038E0009B01AC01C301B2010E94AC274B015C01FA
:1038F000DBCFC701CF911F910F91FF90EF90DF9029
:10390000CF90BF90AF909F908F907F906F905F907F
:103910004F90089510928E0510928D0548EE53E059
:1039200060E070E040938F0550939005609391059F
:103930007093920589E191E090938C0580938B05BB
:1039400085EC90E0909398058093970584EC90E047
:1039500090939A058093990580EC90E090939C0554
:1039600080939B0581EC90E090939E0580939D054C
:1039700082EC90E09093A00580939F0586EC90E008
:103980009093A2058093A1051092A4051092A5051D
:103990001092A6051092A7058BE291E0909329065C
:1039A000809328068FEF9FEF90932D0680932C062F
:1039B00090932F0680932E069093310680933006C5
:1039C00080E5809334061092350610923B061092E3
:1039D0003C0610923F061092410682E090E0A0E083
:1039E000B0E08093420690934306A0934406B093C0
:1039F000450610925906109263061092620685E3FE
:103A000091E0909361068093600610926506109293
:103A10008206109281064093830650938406609339
:103A200085067093860681E491E0909380068093EA
:103A30007F069FEF9093D7069093D8069093D90670
:103A40009093DA068091AF068C3078F591E0980F6C
:103A50009093AF068093CB0690E0FC01EE0FFF1F22
:103A6000E80FF91FE557F94F88EB9BE092838183BC
:103A70001092B3061092B20688EE93E0A0E0B0E098
:103A80008093B4069093B506A093B606B093B7069C
:103A900083E591E09093B1068093B0061092CA0638
:103AA0001092C9061092BC0608959093CB06E0CF01
:103AB000CF93DF93CDB7DEB7CF57D1090FB6F894C8
:103AC000DEBF0FBECDBF789484B5826084BD84B55F
:103AD000816084BD85B5826085BD85B5816085BD09
:103AE00080916E00816080936E00109281008091C1
:103AF0008100826080938100809181008160809349
:103B00008100809180008160809380008091B1006D
:103B100084608093B1008091B00081608093B00098
:103B200080917A00846080937A0080917A0082602C
:103B300080937A0080917A00816080937A008091EE
:103B40007A00806880937A001092C1008091CB0641
:103B50008C3008F051C061E08EE00E94F00380914B
:103B6000CB06282F30E0F901EE0FFF1FE20FF31F05
:103B7000E557F94F9081907C9E6090831092CC061F
:103B80001092CD062CE0622F0E94472C829FB0013C
:103B9000112430E020E0AB01420F531FFA01EE0F79
:103BA000FF1FE40FF51FE557F94F908196FD16C0F2
:103BB0002F5F3F4F2C30310571F781110FC01092EC
:103BC000800082E080938100109285001092840032
:103BD000B19A80916F00826080936F00E091CB0674
:103BE0008E2F90E0FC01EE0FFF1FE80FF91FE55745
:103BF000F94F80818064808362E088E00E94F00356
:103C000062E086E00E94F00362E085E00E94F0033B
:103C100062E087E00E94F00381E090E09093330639
:103C20008093320688E690E090932F0680932E06CC
:103C300010922D0610922C0688E296E00E948C13BA
:103C40008FE7898321E030E041E050E0BE016F5F03
:103C50007F4F88E296E00E94900466EB8EE70E9418
:103C6000970461E070E080E090E00E9451046FE70B
:103C700088E296E00E94AE0461E070E080E090E0AF
:103C80000E94510461E18EE70E94970461E070E0B8
:103C900080E090E00E94510463E088E296E00E9498
:103CA000AE0490E044E0959587954A95E1F78370DE
:103CB000813061F765E18EE70E94970461E070E072
:103CC00080E090E00E94510463E088E296E00E9468
:103CD000AE0490E095958795959587958370813092
:103CE00069F723E030E050E040E063E083E40E94C5
:103CF000C20424E030E050E040E063E081E40E9450
:103D0000C20469E18EE70E9497046CE370E080E0F2
:103D100090E00E94510460E489E60E94970467E302
:103D20008EE70E9497046AE98EE70E94970460EC90
:103D30008EE70E94970460E98FE70E94970422E0D3
:103D400030E044E050E062E085E00E94C20460E8B8
:103D50008FE70E94970460E28BE40E94970463E877
:103D60008CE40E94970422E030E044E050E062E0FE
:103D70008BE60E94C20461E08FE40E9497046BE42A
:103D80008EE40E94970463E070E080E090E00E947F
:103D9000510464E08FE40E94970461E58EE40E9480
:103DA00097046EE08FE40E94970462E58EE40E941F
:103DB000970462E08FE40E9497046CE48EE40E9412
:103DC000970462E48DE40E94970466E084E40E9414
:103DD000970421E030E047E050E060E08CE40E948E
:103DE000C20463E088E296E00E94AE0483708130F2
:103DF00039F061E070E080E090E00E945104F1CF82
:103E00006FEF85E50E94970460EF86E50E949704B6
:103E100060E087E50E94970460E088E296E00E94F7
:103E2000AE0487E78093CE068091D7068F3F09F0D6
:103E3000F8C00E94BE0380ED0E942412883509F06C
:103E400060C088E80E94D4119093DC068093DB0662
:103E50008AE80E94D4119093DE068093DD068CE8F8
:103E60000E94D4119093E0068093DF068EE80E94B2
:103E7000D4119093E2068093E10680E90E94D41168
:103E80009093E4068093E30682E90E94D411909314
:103E9000E6068093E50684E90E94D4119093E80633
:103EA0008093E70686E90E94D4119093EA068093F6
:103EB000E90688E90E94D4119093EC068093EB0602
:103EC0008AE90E94D4119093EE068093ED068CE966
:103ED0000E94D4119093F0068093EF068EE90E9421
:103EE000D4119093F2068093F10667E284EF0E946A
:103EF000D21085EF0E942412682F637085EF0E9414
:103F0000D21061E081E10E94F00361E080E10E9453
:103F1000F00361E08AE00E94F00361E084E00E9427
:103F2000F00360E088E296E00E94AE0424E030E016
:103F300050E040E06CE081E40E94C20423E030E005
:103F400050E040E062E083E40E94C20424E030E0FC
:103F500050E040E069E080E40E94C20424E030E0E8
:103F600050E040E069E082E40E94C204809165066E
:103F7000882321F080E696E00E94520E10924106BE
:103F800010923F0610923C0610923B068AE0809306
:103F90003A060E9483048B0161E080913A060E94F8
:103FA000F00361E080913A060E9490030E9481052F
:103FB00082E5809334061092350680913406909104
:103FC00035060E9429062AE0F22E8FEF0E94C305D3
:103FD000FA94F110FACF86E396E00E942C0620E0D6
:103FE00030E0A90160E086E396E00E944206F82EE8
:103FF00080934006CC24C3948C1581F10E948304E5
:10400000601B710B613D774050F381E080933B066C
:1040100086E396E00E94B80561E081E10E9490038A
:10402000FFCF61E00E94900361E08091D7060E947B
:10403000F0038091DA068F3F19F40E948105FBCED0
:1040400061E00E94F00361E08091D8060E94F003D5
:1040500060E08091D9060E94F003EDCE2AEA31E0BB
:1040600040E050E068E086E396E00E94420682FF6E
:104070002BC0F092410680914106C12CD12C7601D3
:10408000823029F4C12CD12CE12C80E4F82E20E0E0
:1040900030E0A90167E386E396E00E944206A701AB
:1040A000960169E286E396E00E944206782E8093AC
:1040B00040068823D1F00E948304601B710B613D90
:1040C000774028F388E0A2CF94E0F92E0E940B06F7
:1040D00080934006FA94F110F9CF8A3A11F082E009
:1040E00095CF82E080934106C6CF80914106823011
:1040F000D1F420E030E0A9016AE386E396E00E9473
:104100004206882311F086E081CF0E940B06807C56
:10411000803C19F483E0809341060E940B060E94C4
:104120000B060E940B0686E396E00E94B80580E528
:10413000809334061092350681E00E94300888236F
:1041400009F487C080E696E00E94E70A882309F414
:1041500063CF7E0143E7E40EF11C87E0ECEFF1E072
:10416000D70101900D928A95E1F715E3812E11E0B8
:10417000912E872D6AE00E94472C805DF701808395
:10418000905D91831EAE1DAE9CAE8BAE21961FAE90
:10419000219719A218A29F8E8E8E1BA2312C212C42
:1041A0009E01255C3F4F5901B0E6CB2EB6E0DB2ED9
:1041B000832D922DF701E80FF91F20812F3209F48A
:1041C0000196D701A80FB91FFE01E85AFF4F30E052
:1041D00020E08F014D914F3249F0442339F0019690
:1041E0002F5F3F4F41932C303105A1F7200F311F36
:1041F000F9011082F701E80FF91F20812F3209F42D
:104200000196382E292E8E0D9F1DFC0160801C8288
:104210001B829A8289821E8221E0A801B601CE010A
:1042200001960E94BD13882309F400C6CE010196B1
:104230000E94520E611014C020E6C21626E0D2067B
:1042400019F0C6010E94520E7394F4E67F1291CFCA
:10425000E9C080E00E943008882309F4DDCE72CFE7
:10426000F50185818111F8C521E0A801B601C501DC
:104270000E94BD13682EF0E6CF16F6E0DF0609F4C3
:10428000DFC5C6010E94520E6110E0C519A218A236
:1042900085E391E09F8F8E8F1BA21C821B829A83E5
:1042A00089831E824E013EE1830E911CC4010E944F
:1042B000E70ACE0101966C01140157016FE270E02C
:1042C000C5010E94362F009709F455C0F5012081E1
:1042D0002F3271F4FFEFAF1ABF0A9C2D8D2D6101B3
:1042E000292E382E922D832D1601C92ED82EE6CFD9
:1042F0008A198D3008F08CE0682E712CA301B5016D
:10430000C8010E94412FF801E60DF71D1082C60179
:104310000E94520EF60185818823F9F01EAE1DAE73
:1043200085E391E09CAF8BAF21961FAE2197E40C03
:10433000F51CF7018081811127C0BE01655C7F4FAC
:10434000CE0101960E94FA044AEF51E0BE016F5F70
:104350007F4FC8010E946B1535C021E0A801B10153
:10436000C6010E94BD138823C9F2A60CB71CC10167
:104370000E94520EB7CF25014E185F08B101CE0141
:10438000CB960E94FA04D3CF19A218A285E391E03C
:104390009F8F8E8F1BA221968FAD21978111AAC06E
:1043A000F8011382128288EE93E0A0E0B0E08483EB
:1043B0009583A683B78383E591E091838083128EF2
:1043C000118E1486F801828193819093B3068093B5
:1043D000B20684819581A681B7818093B4069093BB
:1043E000B506A093B606B093B70680859185A285E1
:1043F000B3858093B8069093B906A093BA06B0939C
:10440000BB06D8011C96ECEBF6E08D91819326E07B
:10441000E93CF207D1F7F801818D928D9093CA069D
:104420008093C90602E811E0F8016491662341F027
:1044300080EB96E00E946B050F5F1F4F892BA1F761
:104440006DE671E080EB96E00E94CF1280EB96E083
:104450000E945E0E90E080E00E94332790E00E9470
:10446000B30160ED77E080E090E00E9451047CE0D1
:10447000972EECE08E2EFEE0EF2EF12CA0E0CA2E5F
:10448000A0E0DA2E11E00E941111809161028F30BC
:1044900009F046C01093600280916002882309F4FD
:1044A0003FC00E94111161E081E10E9490036CE223
:1044B00071E080E090E00E94510460E081E10E94A0
:1044C00090036CE271E080E090E00E945104009162
:1044D0006102099DC00111240E94B30180915F0215
:1044E0000817D1F2089D602D112481E090E00E9410
:1044F0003B27D2CF22E1A701BE01655C7F4FC401FB
:104500000E94BD13882309F44BCFCE01CB960E94A5
:10451000520EB401CE0101960E94FA04A70116CFF3
:10452000809161028E30A1F510935E0280915E024F
:10453000882371F10E94111161E081E10E949003D2
:104540006CE271E080E090E00E94510460E081E163
:104550000E9490036CE271E080E090E00E945104C0
:10456000009161025701A01AB1089A9CC0019B9C5E
:10457000900D11240E94B30180915F020817B1F2DF
:10458000A89C602D112490E080E00E943B27CECFB4
:10459000809161028C30B9F40E9411118091610206
:1045A0008111FACF0E9411116091610280915F0226
:1045B0008617C1F382E090E00E943B278091610260
:1045C00080935F02EFCF8D30B9F40E94111180917A
:1045D00061028111FACF0E941111609161028091F4
:1045E0005F028617C1F383E090E00E943B27809131
:1045F000610280935F02EFCF8A3009F02AC31093E3
:10460000A4020E94A01580910A01A0901403B0900A
:104610001503882309F44FC0B5010B2C000C880B3F
:10462000990B0E9439292B013C016091160370916E
:104630001703072E000C880B990B0E943929A30140
:1046400092010E942C2820E030E044E353E40E94D1
:104650006B2A2BED3FE049E450E40E9490286093E0
:1046600006037093070380930803909309036091F6
:10467000120370911303072E000C880B990B0E94F4
:104680003929A30192010E942C2820E030E044E364
:1046900053E40E946B2A2BED3FE049E450E40E9472
:1046A000902860930E0370930F03809310039093F0
:1046B000110310920A01B501BB0C880B990B0E94E3
:1046C000392920E030E040E05AEB0E946B2A20E0DC
:1046D00030E0A9010E945E2A181654F48091050367
:1046E000811106C01093050361E084E00E949003ED
:1046F000E091C906F091CA06309709F48BC3858111
:10470000882309F487C380910503882309F482C3B1
:104710008091080190910901823091050CF4F6C254
:104720000E94A01541EDC42E42E0D42E52E6252E63
:1047300052E0352E25EE32E0C258DF4F3983288310
:10474000CE57D0408DEB92E0EE969FAF8EAFEE97B6
:10475000E6E7F2E0EC96FFAFEEAFEC976AE8E62E04
:1047600062E0F62E10E000E0F60141905190619079
:1047700071906F010115110509F071C22DEA35EC38
:1047800047E259E360918A0270918B0280918C021A
:1047900090918D020E94AD274B015C0180927602C0
:1047A00090927702A0927802B09279022AE037EDD7
:1047B00043E25EE30E94AD279B01AC01C501B40159
:1047C0000E94902860936202709363028093640257
:1047D00090936502F10181909190A190B1901F0199
:1047E000C258DF4FE881F981CE57D0406191719175
:1047F00081919191C258DF4FF983E883CE57D04021
:10480000A30192010E94AC27A50194010E946B2A8A
:10481000A30192010E94AD27EE96EEADFFADEE979B
:104820006193719381939193EE96FFAFEEAFEE9704
:10483000EC96EEADFFADEC97419051906190719088
:10484000EC96FFAFEEAFEC97F6013497608371837F
:1048500082839383A501940160E070E080E89FE388
:104860000E94AC27A30192010E946B2AF701619379
:104870007193819391937F010F5F1F4F0530110555
:1048800009F072CF6091A5027091A6028091A702F3
:104890009091A8020E9439296B017C0106E013E087
:1048A00021ECA22E22E0B22E39EF832E32E0932E9D
:1048B000F80141905190619071908F01F501219123
:1048C0003191419151915F01C701B6010E946B2A5C
:1048D00020E030E04AE754E40E949028A3019201CE
:1048E0000E94AD27F40161937193819391934F01DD
:1048F000F8013497608371838283938322E133E0EC
:1049000020173107A9F60E9483046093A9027093CF
:10491000AA028093AB029093AC020091AD02109179
:10492000AE022091AF023091B0026B017C01C01A3F
:10493000D10AE20AF30A970186010093A5021093B7
:10494000A6022093A7023093A8026093AD02709351
:10495000AE028093AF029093B0020091B102109129
:10496000B2022091B3023091B4024B015C01801A73
:10497000910AA20AB30A4AE0C501B401B7FE0BC00E
:104980008DE20E94671B66277727CB01681979099A
:104990008A099B094AE00E946C1B8CE20E94671BFB
:1049A0002091B5023091B6024091B7025091B80201
:1049B0006091BD027091BE028091BF029091C002D1
:1049C0000E94AC2742E00E94B21B8CE20E94671B4F
:1049D0006091F9027091FA028091FB029091FC02C1
:1049E00042E00E94B21B8CE20E94671B6091FD02B4
:1049F0007091FE028091FF029091000342E00E94BC
:104A0000B21B8CE20E94671B60910103709102034C
:104A1000809103039091040342E00E94B21B8CE258
:104A20000E94671B6091CD027091CE028091CF02EF
:104A30009091D00242E00E94B21B8CE20E94671B60
:104A400090E2D92ED98222E030E041E050E0BE0170
:104A50006F5F7F4F88E296E00E94900469817A81BF
:104A6000072E000C880B990B0E94392920E030E0BA
:104A700040E05BE30E946B2A20E030E048EB51E429
:104A80000E94AD2742E00E94B21B6DE671E080EB10
:104A900096E00E94CF128091A402882309F453C0AB
:104AA0008090BD029090BE02A090BF02B090C00264
:104AB0002091B9023091BA024091BB025091BC02E0
:104AC000C501B4010E94AC272B013C010091A20258
:104AD0001091A3022AE037ED43EA5CEB0E948B2899
:104AE00087FF06C00F5F1F4F1093A3020093A2021F
:104AF000C090B102D090B202E090B302F090B40244
:104B00008091A2029091A30205970CF475C1809147
:104B1000A102813009F470C161E081E10E9490033B
:104B200021E02093A1020E9483046C197D097093F7
:104B3000A00260939F028092B9029092BA02A09262
:104B4000BB02B092BC021091A1028090A902909089
:104B5000AA02A090AB02B090AC028091B1029091F9
:104B6000B202A091B302B091B402881A990AAA0ABB
:104B7000BB0A80919F029091A002092E000CAA0B03
:104B8000BB0B881A990AAA0ABB0A82E090E00E942D
:104B90003327C82EE8E5F2E0CE9EC001CF9E900DEF
:104BA0001124092E000CAA0BBB0B88159905AA0528
:104BB000BB054CF4112339F081E090E00E943327CB
:104BC00090E00E94B30110919E0283E090E00E9469
:104BD0003327282F88EEE82E83E0F82E2E9DC00183
:104BE0002F9D900D1124092E000CAA0BBB0B8815CC
:104BF0009905AA05BB054CF4112339F081E090E03A
:104C00000E94332790E00E94B301809108019091A7
:104C1000090164EF71E00E94532C892B81F461E05B
:104C200084E00E94900361E080E10E94900380EBA9
:104C300096E00E945E0E60E080E10E949003809109
:104C40000801909109010196909309018093080150
:104C50005FCD8B3009F0D5CC10939E02D2CC0430BE
:104C6000110539F12DEA35EC47E258E3F70160818F
:104C70007181828193810E94AD274B015C01EC968A
:104C8000EEADFFADEC9780829182A282B3822FE6D7
:104C900032E143E85BE30E94AD279B01AC01C50113
:104CA000B4010E949028F101608371838283938311
:104CB00091CD25EB3EEF46E157E360919A0270916A
:104CC0009B0280919C0290919D020E94AD274B0116
:104CD0005C018092860290928702A0928802B09234
:104CE00089022AEF3DEE4BE65AE30E94AD279B0175
:104CF000AC01C501B4010E949028609372027093C8
:104D00007302809374029093750264CD019709F049
:104D1000FACD8091060390910703A0910803B0910A
:104D200009038093F9029093FA02A093FB02B093D7
:104D3000FC028091120390911303A0911403B0918F
:104D400015038093050390930603A0930703B09384
:104D500008038091E5029091E602A091E702B091EC
:104D6000E8028093D1029093D202A093D302B09331
:104D7000D4028093BD029093BE02A093BF02B09371
:104D8000C0028093B9029093BA02A093BB02B09381
:104D9000BC028093B5029093B602A093B702B09381
:104DA000B8028091F5029091F602A091F702B091BD
:104DB000F8028093E1029093E202A093E302B093A1
:104DC000E4028093CD029093CE02A093CF02B093E1
:104DD000D0020E9483046093B1027093B202809368
:104DE000B3029093B4026093AD027093AE028093CD
:104DF000AF029093B00287CD20E030E0A901C3015B
:104E0000B2010E945E2A87FD96CE1092A3021092F4
:104E1000A20291CEC114D10409F435CB0E949B02A9
:104E2000882309F430CB0E9400002DCB30E6C31656
:104E300036E0D30609F42ACAC6010E94520E26CAD9
:104E4000882309F423CACE014E966C019C2D8D2D2A
:104E50006501A92EB82EACC940E6C41646E0D406BA
:104E600009F414CAE9CFF999FECF92BD81BDF89A31
:104E7000992780B50895262FF999FECF1FBA92BDC4
:104E800081BD20BD0FB6F894FA9AF99A0FBE01962B
:104E90000895052E97FB1EF400940E94602757FD8D
:104EA00007D00E947B2707FC03D04EF40C946027A8
:104EB00050954095309521953F4F4F4F5F4F089546
:104EC00090958095709561957F4F8F4F9F4F089576
:104ED0000E949D27A59F900DB49F900DA49F800DCB
:104EE000911D11240895B7FF0C9468270E9468272C
:104EF000821B930B0895A1E21A2EAA1BBB1BFD0176
:104F00000DC0AA1FBB1FEE1FFF1FA217B307E407A8
:104F1000F50720F0A21BB30BE40BF50B661F771F00
:104F2000881F991F1A9469F76095709580959095E0
:104F30009B01AC01BD01CF010895A29FB001B39FB9
:104F4000C001A39F700D811D1124911DB29F700D92
:104F5000811D1124911D08955058BB27AA270E9436
:104F6000C4270C94242A0E94162A38F00E941D2A75
:104F700020F039F49F3F19F426F40C94DC290EF448
:104F8000E095E7FB0C94D629E92F0E94352A58F3C7
:104F9000BA17620773078407950720F079F4A6F51E
:104FA0000C94572A0EF4E0950B2EBA2FA02D0B016E
:104FB000B90190010C01CA01A0011124FF27591B5E
:104FC00099F0593F50F4503E68F11A16F040A22F64
:104FD000232F342F4427585FF3CF469537952795D5
:104FE000A795F0405395C9F77EF41F16BA0B620BD4
:104FF000730B840BBAF09150A1F0FF0FBB1F661F1B
:10500000771F881FC2F70EC0BA0F621F731F841F5D
:1050100048F4879577956795B795F7959E3F08F083
:10502000B0CF9395880F08F09927EE0F9795879545
:1050300008950E94162A60F080E891E009F49EEF3E
:105040000E941D2A28F040E851E071F45EEF0CC088
:105050000C94DC290C94572AE92FE0780E94352A19
:1050600040F3092E052AB1F32617370748075907D9
:1050700038F00E2E07F8E02569F0E025E0640AC05C
:10508000EF6307F8009407FADB01B9019D01DC0129
:10509000CA01AD01EF930E94A7280E94242A0E9412
:1050A0005C285F91552339F02BED3FE049E450FD3A
:1050B00049EC0C94AD270895DF93DD27B92FBF7716
:1050C00040E85FE31616170648075B0718F4D92F68
:1050D0000E94632A9F938F937F936F930E94282B44
:1050E000E8E6F0E00E94EF290E94242A2F913F91E8
:1050F0004F915F910E947E2ADD2351F09058A2EAE1
:105100002AED3FE049EC5FE3D0785D270E94C42799
:10511000DF910C94242A0E94B22908F481E00895BA
:105120000E94A4280C94242A0E941D2A58F00E9450
:10513000162A40F029F45F3F29F00C94D62951112A
:105140000C94582A0C94DC290E94352A68F3992380
:10515000B1F3552391F3951B550BBB27AA27621773
:105160007307840738F09F5F5F4F220F331F441F80
:10517000AA1FA9F335D00E2E3AF0E0E832D09150B4
:105180005040E695001CCAF72BD0FE2F29D0660FA1
:10519000771F881FBB1F261737074807AB07B0E8E4
:1051A00009F0BB0B802DBF01FF2793585F4F3AF0EA
:1051B0009E3F510578F00C94D6290C94582A5F3FF5
:1051C000E4F3983ED4F3869577956795B795F79570
:1051D0009F5FC9F7880F911D9695879597F9089558
:1051E000E1E0660F771F881FBB1F621773078407F4
:1051F000BA0720F0621B730B840BBA0BEE1F88F703
:10520000E09508950E943D2A88F09F5798F0B92FA5
:105210009927B751B0F0E1F0660F771F881F991FEB
:105220001AF0BA95C9F714C0B13091F00E94572A0C
:10523000B1E008950C94572A672F782F8827B85F1C
:1052400039F0B93FCCF3869577956795B395D9F743
:105250003EF490958095709561957F4F8F4F9F4F4D
:10526000089597FB16F40E94DF290C947529E894A1
:1052700009C097FB3EF490958095709561957F4F9E
:105280008F4F9F4F9923A9F0F92F96E9BB2793954C
:10529000F695879577956795B795F111F8CFFAF45C
:1052A000BB0F11F460FF1BC06F5F7F4F8F4F9F4F8D
:1052B00016C0882311F096E911C0772321F09EE8EB
:1052C000872F762F05C0662371F096E8862F70E051
:1052D00060E02AF09A95660F771F881FDAF7880F2B
:1052E0009695879597F90895E894F92F96EBFF2303
:1052F00081F0121613061406440B9395F6958795C4
:105300007795679557954040FF23B9F71BC09927BC
:105310000895882351F49850D2F7872B762F652F64
:10532000542F432F322F20E0B1F312161306140628
:10533000440B88233AF09A95440F551F661F771F38
:10534000881FCAF755234AF4440F551F11F460FF14
:1053500004C06F5F7F4F8F4F9F4F880F9695879543
:1053600097F90895990F0008550FAA0BE0E8FEEF92
:1053700016161706E807F907C0F012161306E40719
:10538000F50798F0621B730B840B950B39F40A2612
:1053900061F0232B242B252B21F408950A2609F4F0
:1053A000A140A6958FEF811D811D089597F99F67F4
:1053B00080E870E060E008959FEF80EC089590959C
:1053C00080957095609550954095309521953F4F0B
:1053D0004F4F5F4F6F4F7F4F8F4F9F4F0895DF931A
:1053E000CF931F930F93FF92EF92DF927B018C017B
:1053F000689406C0DA2EEF010E947E2AFE01E8942E
:10540000A5912591359145915591A6F3EF010E9403
:10541000C427FE019701A801DA9469F7DF90EF90A5
:10542000FF900F911F91CF91DF91089500240A946E
:105430001616170618060906089500240A9412166F
:105440001306140605060895092E0394000C11F4A2
:10545000882352F0BB0F40F4BF2B11F460FF04C04F
:105460006F5F7F4F8F4F9F4F089557FD9058440FA8
:10547000551F59F05F3F71F04795880F97FB991FB3
:1054800061F09F3F79F08795089512161306140670
:10549000551FF2CF4695F1DF08C0161617061806FD
:1054A000991FF1CF86957105610508940895E894D8
:1054B000BB2766277727CB0197F908950E94B22969
:1054C00008F48FEF08959B01AC0160E070E080E884
:1054D0009FE30C9490280E947E2A0C94242A0E9418
:1054E000162A38F00E941D2A20F0952311F00C9402
:1054F000D6290C94DC2911240C94582A0E94352AB0
:1055000070F3959FC1F3950F50E0551F629FF00116
:10551000729FBB27F00DB11D639FAA27F00DB11D2F
:10552000AA1F649F6627B00DA11D661F829F2227B8
:10553000B00DA11D621F739FB00DA11D621F839F3F
:10554000A00D611D221F749F3327A00D611D231F15
:10555000849F600D211D822F762F6A2F11249F5763
:1055600050409AF0F1F088234AF0EE0FFF1FBB1F66
:10557000661F771F881F91505040A9F79E3F510525
:1055800080F00C94D6290C94582A5F3FE4F3983E9F
:10559000D4F3869577956795B795F795E7959F5FCF
:1055A000C1F7FE2B880F911D9695879597F9089561
:1055B000FA01EE0FFF1F309621053105A1F16115AB
:1055C000710561F48038BFE39B0749F16894903816
:1055D000810561F08038BFEF9B0741F099234AF5C0
:1055E000FF3FE1053105210519F1E8940894E7959D
:1055F000D901AA2329F4AB2FBE2FF85FD0F310C036
:10560000FF5F70F4A695E0F7F73950F019F0FF3A14
:1056100038F49F779F930DD00F9007FC9058089512
:1056200046F00C94DC2960E070E080E89FE3089588
:105630004FE79F775F934F933F932F930E94AD2B3C
:105640002F913F914F915F910E946B2A0C94392BBF
:105650009B01AC010C946B2A0E94B229880B990B18
:10566000089529F416F00C94D6290C94572A0C941A
:10567000DC290E943D2AA8F39638A0F707F80F927C
:10568000E8942BE33AEA48EB5FE70E94812A0F9205
:105690000F920F924DB75EB70F920E94F52BE5E97E
:1056A000F0E00E94EF294F915F91EF91FF91E59516
:1056B000EE1FFF1F49F0FE57E0684427EE0F441F1E
:1056C000FA95E1F74195550B0E946F2B0F9007FE5D
:1056D0000C94632A08950C94D6290C94292C0E94CA
:1056E0003D2AD8F39923C9F3940F511DA3F3915088
:1056F000504094F059F0882332F0660F771F881FCE
:1057000091505040C1F79E3F51052CF7880F911DD5
:105710009695879597F908955F3FACF0983E9CF079
:10572000BB27869577956795B79508F4B1609395F3
:10573000C1F7BB0F58F711F460FFE8CF6F5F7F4FE1
:105740008F4F9F4FE3CF0C94582A16F00C94292CBE
:105750000C94DC2968940C94D6290E943D2AA8F365
:105760009923C1F3AEF3DF93CF931F930F93FF926F
:10577000C92FDD2788232AF02197660F771F881FFE
:10578000DAF720E030E040E85FEB9FE3883920F073
:10579000803E38F021968F770E94AD27EDEBF0E048
:1057A00004C00E94AD27EAEEF0E00E94EF298B01D1
:1057B000BE01EC01FB2E6F5771097595771F880BA1
:1057C000990B0E94392928E132E741E35FE30E9407
:1057D0007E2AAF2D9801AE01FF900F911F91CF91BE
:1057E000DF910E94C4270C94242AFA01DC01AA0F3D
:1057F000BB1F9B01AC01BF5728F422273327442746
:10580000507820C0B75190F4AB2F002446953795BF
:105810002795011CA395D2F3002071F0220F331FAE
:10582000441FB395DAF30ED00C94AC2761307105A8
:10583000A0E88A07B94630F49B01AC0166277727B8
:1058400088279078309621F02083318342835383D8
:1058500008959F3F31F0915020F487957795679593
:10586000B795880F911D9695879597F90895DB0157
:105870008F939F930E946827BF91AF91A29F800D45
:10588000911DA39F900DB29F900D11240895991B17
:1058900079E004C0991F961708F0961B881F7A9527
:1058A000C9F78095089597FB072E16F4009407D04A
:1058B00077FD09D00E94EA2D07FC05D03EF49095B3
:1058C00081959F4F0895709561957F4F0895DF935F
:1058D000CF931F930F939A9DF02D219FF00D8B9DD9
:1058E000F00D8A9DE02DF10D039FF00D029FE00D5C
:1058F000F11D4E9DE00DF11D5E9DF00D4F9DF00DD3
:105900007F936F93BF92AF925F934F93D5010E94A5
:105910009D278B01AC01D7010E949D27EB01E80F69
:10592000F91FD6010E94B62C2F913F91D6010E94FB
:105930009D27C60FD71FE81FF91FAF91BF910E9487
:10594000B62C2F913F910E949D27C60FD71FE81FAD
:10595000F91FD6010E949D27E60FF71F9801BE018F
:10596000CF010F911F91CF91DF9108950E949D2744
:10597000460F571FC81FD91F08F431960895689421
:1059800001C0E894F92FF12B12F00C94F32CA0E055
:10599000B0E0EDECFCE20C94652D092E059422F4A8
:1059A0000E944F2D112392F4F0E80F26FFEFE094B0
:1059B000F09400951095B094C094D094A194BF0A2F
:1059C000CF0ADF0AEF0AFF0A0F0B1F0B0E94FE2C03
:1059D00007FC0E944F2DCDB7DEB7ECE00C94812D73
:1059E000689401C0E8948F929F92CF93DF930E94B6
:1059F000FE2CDF91CF919F908F9008958824992459
:105A0000F401E401B0E49F93AA279A158B049C0447
:105A1000ED05FE05CF05D007A10798F4AD2FDC2FCB
:105A2000CF2FFE2FE92D982C892E982F872F762F98
:105A3000652F542F432F322F2227B85031F7BF91B3
:105A400027C01B2EBF91BB27220F331F441F551F9A
:105A5000661F771F881F991F881C991CEE1FFF1F48
:105A6000CC1FDD1FAA1FBB1F8A149B04EC05FD057C
:105A7000CE05DF05A007B10748F08A189B08EC099E
:105A8000FD09CE09DF09A00BB10B21601A94E1F6E4
:105A90002EF49401AF01BE01CD01000C0895609574
:105AA00070958095909530954095509521953F4FF4
:105AB0004F4F5F4F6F4F7F4F8F4F9F4F08952F92E4
:105AC0003F924F925F926F927F928F929F92AF928E
:105AD000BF92CF92DF92EF92FF920F931F93CF93DB
